{
	"contracts/Whitelist.sol": {
		"Whitelist": {
			"abi": [
				{
					"anonymous": false,
					"inputs": [
						{
							"indexed": true,
							"internalType": "address",
							"name": "_beneficiary",
							"type": "address"
						}
					],
					"name": "AddedBeneficiary",
					"type": "event"
				},
				{
					"anonymous": false,
					"inputs": [
						{
							"indexed": true,
							"internalType": "address",
							"name": "previousOwner",
							"type": "address"
						},
						{
							"indexed": true,
							"internalType": "address",
							"name": "newOwner",
							"type": "address"
						}
					],
					"name": "OwnershipTransferred",
					"type": "event"
				},
				{
					"inputs": [
						{
							"internalType": "address[]",
							"name": "_beneficiaries",
							"type": "address[]"
						}
					],
					"name": "addToWhitelist",
					"outputs": [],
					"stateMutability": "nonpayable",
					"type": "function"
				},
				{
					"inputs": [],
					"name": "owner",
					"outputs": [
						{
							"internalType": "address",
							"name": "",
							"type": "address"
						}
					],
					"stateMutability": "view",
					"type": "function"
				},
				{
					"inputs": [
						{
							"internalType": "address",
							"name": "_beneficiary",
							"type": "address"
						}
					],
					"name": "removeFromWhitelist",
					"outputs": [],
					"stateMutability": "nonpayable",
					"type": "function"
				},
				{
					"inputs": [
						{
							"internalType": "address",
							"name": "newOwner",
							"type": "address"
						}
					],
					"name": "transferOwnership",
					"outputs": [],
					"stateMutability": "nonpayable",
					"type": "function"
				},
				{
					"inputs": [
						{
							"internalType": "address",
							"name": "",
							"type": "address"
						}
					],
					"name": "whitelist",
					"outputs": [
						{
							"internalType": "bool",
							"name": "",
							"type": "bool"
						}
					],
					"stateMutability": "view",
					"type": "function"
				}
			],
			"devdoc": {
				"kind": "dev",
				"methods": {},
				"version": 1
			},
			"evm": {
				"assembly": "    /* \"contracts/Whitelist.sol\":87:684  contract Whitelist is Ownable {... */\n  mstore(0x40, 0x80)\n  callvalue\n  dup1\n  iszero\n  tag_1\n  jumpi\n  0x00\n  dup1\n  revert\ntag_1:\n  pop\n    /* \"contracts/Ownable.sol\":365:375  msg.sender */\n  caller\n    /* \"contracts/Ownable.sol\":357:362  owner */\n  0x00\n  dup1\n    /* \"contracts/Ownable.sol\":357:375  owner = msg.sender */\n  0x0100\n  exp\n  dup2\n  sload\n  dup2\n  0xffffffffffffffffffffffffffffffffffffffff\n  mul\n  not\n  and\n  swap1\n  dup4\n  0xffffffffffffffffffffffffffffffffffffffff\n  and\n  mul\n  or\n  swap1\n  sstore\n  pop\n    /* \"contracts/Whitelist.sol\":87:684  contract Whitelist is Ownable {... */\n  dataSize(sub_0)\n  dup1\n  dataOffset(sub_0)\n  0x00\n  codecopy\n  0x00\n  return\nstop\n\nsub_0: assembly {\n        /* \"contracts/Whitelist.sol\":87:684  contract Whitelist is Ownable {... */\n      mstore(0x40, 0x80)\n      callvalue\n      dup1\n      iszero\n      tag_1\n      jumpi\n      0x00\n      dup1\n      revert\n    tag_1:\n      pop\n      jumpi(tag_2, lt(calldatasize, 0x04))\n      shr(0xe0, calldataload(0x00))\n      dup1\n      0x7f649783\n      eq\n      tag_3\n      jumpi\n      dup1\n      0x8ab1d681\n      eq\n      tag_4\n      jumpi\n      dup1\n      0x8da5cb5b\n      eq\n      tag_5\n      jumpi\n      dup1\n      0x9b19251a\n      eq\n      tag_6\n      jumpi\n      dup1\n      0xf2fde38b\n      eq\n      tag_7\n      jumpi\n    tag_2:\n      0x00\n      dup1\n      revert\n        /* \"contracts/Whitelist.sol\":356:560  function addToWhitelist(address[] calldata _beneficiaries) public onlyOwner {... */\n    tag_3:\n      tag_8\n      0x04\n      dup1\n      calldatasize\n      sub\n      dup2\n      add\n      swap1\n      tag_9\n      swap2\n      swap1\n      tag_10\n      jump\t// in\n    tag_9:\n      tag_11\n      jump\t// in\n    tag_8:\n      stop\n        /* \"contracts/Whitelist.sol\":566:682  function removeFromWhitelist(address _beneficiary) public onlyOwner {... */\n    tag_4:\n      tag_12\n      0x04\n      dup1\n      calldatasize\n      sub\n      dup2\n      add\n      swap1\n      tag_13\n      swap2\n      swap1\n      tag_14\n      jump\t// in\n    tag_13:\n      tag_15\n      jump\t// in\n    tag_12:\n      stop\n        /* \"contracts/Ownable.sol\":211:231  address public owner */\n    tag_5:\n      tag_16\n      tag_17\n      jump\t// in\n    tag_16:\n      mload(0x40)\n      tag_18\n      swap2\n      swap1\n      tag_19\n      jump\t// in\n    tag_18:\n      mload(0x40)\n      dup1\n      swap2\n      sub\n      swap1\n      return\n        /* \"contracts/Whitelist.sol\":123:164  mapping(address => bool) public whitelist */\n    tag_6:\n      tag_20\n      0x04\n      dup1\n      calldatasize\n      sub\n      dup2\n      add\n      swap1\n      tag_21\n      swap2\n      swap1\n      tag_14\n      jump\t// in\n    tag_21:\n      tag_22\n      jump\t// in\n    tag_20:\n      mload(0x40)\n      tag_23\n      swap2\n      swap1\n      tag_24\n      jump\t// in\n    tag_23:\n      mload(0x40)\n      dup1\n      swap2\n      sub\n      swap1\n      return\n        /* \"contracts/Ownable.sol\":507:728  function transferOwnership(address newOwner) public onlyOwner {... */\n    tag_7:\n      tag_25\n      0x04\n      dup1\n      calldatasize\n      sub\n      dup2\n      add\n      swap1\n      tag_26\n      swap2\n      swap1\n      tag_14\n      jump\t// in\n    tag_26:\n      tag_27\n      jump\t// in\n    tag_25:\n      stop\n        /* \"contracts/Whitelist.sol\":356:560  function addToWhitelist(address[] calldata _beneficiaries) public onlyOwner {... */\n    tag_11:\n        /* \"contracts/Ownable.sol\":445:450  owner */\n      0x00\n      dup1\n      sload\n      swap1\n      0x0100\n      exp\n      swap1\n      div\n      0xffffffffffffffffffffffffffffffffffffffff\n      and\n        /* \"contracts/Ownable.sol\":431:450  msg.sender == owner */\n      0xffffffffffffffffffffffffffffffffffffffff\n      and\n        /* \"contracts/Ownable.sol\":431:441  msg.sender */\n      caller\n        /* \"contracts/Ownable.sol\":431:450  msg.sender == owner */\n      0xffffffffffffffffffffffffffffffffffffffff\n      and\n      eq\n        /* \"contracts/Ownable.sol\":423:479  require(msg.sender == owner, \"Not authorized operation\") */\n      tag_29\n      jumpi\n      mload(0x40)\n      0x08c379a000000000000000000000000000000000000000000000000000000000\n      dup2\n      mstore\n      0x04\n      add\n      tag_30\n      swap1\n      tag_31\n      jump\t// in\n    tag_30:\n      mload(0x40)\n      dup1\n      swap2\n      sub\n      swap1\n      revert\n    tag_29:\n        /* \"contracts/Whitelist.sol\":447:456  uint256 i */\n      0x00\n        /* \"contracts/Whitelist.sol\":442:554  for (uint256 i = 0; i < _beneficiaries.length; i++) {... */\n    tag_33:\n        /* \"contracts/Whitelist.sol\":466:480  _beneficiaries */\n      dup3\n      dup3\n        /* \"contracts/Whitelist.sol\":466:487  _beneficiaries.length */\n      swap1\n      pop\n        /* \"contracts/Whitelist.sol\":462:463  i */\n      dup2\n        /* \"contracts/Whitelist.sol\":462:487  i < _beneficiaries.length */\n      lt\n        /* \"contracts/Whitelist.sol\":442:554  for (uint256 i = 0; i < _beneficiaries.length; i++) {... */\n      iszero\n      tag_34\n      jumpi\n        /* \"contracts/Whitelist.sol\":539:543  true */\n      0x01\n        /* \"contracts/Whitelist.sol\":508:517  whitelist */\n      dup1\n        /* \"contracts/Whitelist.sol\":508:536  whitelist[_beneficiaries[i]] */\n      0x00\n        /* \"contracts/Whitelist.sol\":518:532  _beneficiaries */\n      dup6\n      dup6\n        /* \"contracts/Whitelist.sol\":533:534  i */\n      dup6\n        /* \"contracts/Whitelist.sol\":518:535  _beneficiaries[i] */\n      dup2\n      dup2\n      lt\n      tag_36\n      jumpi\n      tag_37\n      tag_38\n      jump\t// in\n    tag_37:\n    tag_36:\n      swap1\n      pop\n      0x20\n      mul\n      add\n      0x20\n      dup2\n      add\n      swap1\n      tag_39\n      swap2\n      swap1\n      tag_14\n      jump\t// in\n    tag_39:\n        /* \"contracts/Whitelist.sol\":508:536  whitelist[_beneficiaries[i]] */\n      0xffffffffffffffffffffffffffffffffffffffff\n      and\n      0xffffffffffffffffffffffffffffffffffffffff\n      and\n      dup2\n      mstore\n      0x20\n      add\n      swap1\n      dup2\n      mstore\n      0x20\n      add\n      0x00\n      keccak256\n      0x00\n        /* \"contracts/Whitelist.sol\":508:543  whitelist[_beneficiaries[i]] = true */\n      0x0100\n      exp\n      dup2\n      sload\n      dup2\n      0xff\n      mul\n      not\n      and\n      swap1\n      dup4\n      iszero\n      iszero\n      mul\n      or\n      swap1\n      sstore\n      pop\n        /* \"contracts/Whitelist.sol\":489:492  i++ */\n      dup1\n      dup1\n      0x01\n      add\n      swap2\n      pop\n      pop\n        /* \"contracts/Whitelist.sol\":442:554  for (uint256 i = 0; i < _beneficiaries.length; i++) {... */\n      jump(tag_33)\n    tag_34:\n      pop\n        /* \"contracts/Whitelist.sol\":356:560  function addToWhitelist(address[] calldata _beneficiaries) public onlyOwner {... */\n      pop\n      pop\n      jump\t// out\n        /* \"contracts/Whitelist.sol\":566:682  function removeFromWhitelist(address _beneficiary) public onlyOwner {... */\n    tag_15:\n        /* \"contracts/Ownable.sol\":445:450  owner */\n      0x00\n      dup1\n      sload\n      swap1\n      0x0100\n      exp\n      swap1\n      div\n      0xffffffffffffffffffffffffffffffffffffffff\n      and\n        /* \"contracts/Ownable.sol\":431:450  msg.sender == owner */\n      0xffffffffffffffffffffffffffffffffffffffff\n      and\n        /* \"contracts/Ownable.sol\":431:441  msg.sender */\n      caller\n        /* \"contracts/Ownable.sol\":431:450  msg.sender == owner */\n      0xffffffffffffffffffffffffffffffffffffffff\n      and\n      eq\n        /* \"contracts/Ownable.sol\":423:479  require(msg.sender == owner, \"Not authorized operation\") */\n      tag_41\n      jumpi\n      mload(0x40)\n      0x08c379a000000000000000000000000000000000000000000000000000000000\n      dup2\n      mstore\n      0x04\n      add\n      tag_42\n      swap1\n      tag_31\n      jump\t// in\n    tag_42:\n      mload(0x40)\n      dup1\n      swap2\n      sub\n      swap1\n      revert\n    tag_41:\n        /* \"contracts/Whitelist.sol\":670:675  false */\n      0x00\n        /* \"contracts/Whitelist.sol\":644:653  whitelist */\n      0x01\n        /* \"contracts/Whitelist.sol\":644:667  whitelist[_beneficiary] */\n      0x00\n        /* \"contracts/Whitelist.sol\":654:666  _beneficiary */\n      dup4\n        /* \"contracts/Whitelist.sol\":644:667  whitelist[_beneficiary] */\n      0xffffffffffffffffffffffffffffffffffffffff\n      and\n      0xffffffffffffffffffffffffffffffffffffffff\n      and\n      dup2\n      mstore\n      0x20\n      add\n      swap1\n      dup2\n      mstore\n      0x20\n      add\n      0x00\n      keccak256\n      0x00\n        /* \"contracts/Whitelist.sol\":644:675  whitelist[_beneficiary] = false */\n      0x0100\n      exp\n      dup2\n      sload\n      dup2\n      0xff\n      mul\n      not\n      and\n      swap1\n      dup4\n      iszero\n      iszero\n      mul\n      or\n      swap1\n      sstore\n      pop\n        /* \"contracts/Whitelist.sol\":566:682  function removeFromWhitelist(address _beneficiary) public onlyOwner {... */\n      pop\n      jump\t// out\n        /* \"contracts/Ownable.sol\":211:231  address public owner */\n    tag_17:\n      0x00\n      dup1\n      sload\n      swap1\n      0x0100\n      exp\n      swap1\n      div\n      0xffffffffffffffffffffffffffffffffffffffff\n      and\n      dup2\n      jump\t// out\n        /* \"contracts/Whitelist.sol\":123:164  mapping(address => bool) public whitelist */\n    tag_22:\n      mstore(0x20, 0x01)\n      dup1\n      0x00\n      mstore\n      keccak256(0x00, 0x40)\n      0x00\n      swap2\n      pop\n      sload\n      swap1\n      0x0100\n      exp\n      swap1\n      div\n      0xff\n      and\n      dup2\n      jump\t// out\n        /* \"contracts/Ownable.sol\":507:728  function transferOwnership(address newOwner) public onlyOwner {... */\n    tag_27:\n        /* \"contracts/Ownable.sol\":445:450  owner */\n      0x00\n      dup1\n      sload\n      swap1\n      0x0100\n      exp\n      swap1\n      div\n      0xffffffffffffffffffffffffffffffffffffffff\n      and\n        /* \"contracts/Ownable.sol\":431:450  msg.sender == owner */\n      0xffffffffffffffffffffffffffffffffffffffff\n      and\n        /* \"contracts/Ownable.sol\":431:441  msg.sender */\n      caller\n        /* \"contracts/Ownable.sol\":431:450  msg.sender == owner */\n      0xffffffffffffffffffffffffffffffffffffffff\n      and\n      eq\n        /* \"contracts/Ownable.sol\":423:479  require(msg.sender == owner, \"Not authorized operation\") */\n      tag_45\n      jumpi\n      mload(0x40)\n      0x08c379a000000000000000000000000000000000000000000000000000000000\n      dup2\n      mstore\n      0x04\n      add\n      tag_46\n      swap1\n      tag_31\n      jump\t// in\n    tag_46:\n      mload(0x40)\n      dup1\n      swap2\n      sub\n      swap1\n      revert\n    tag_45:\n        /* \"contracts/Ownable.sol\":608:609  0 */\n      0x00\n        /* \"contracts/Ownable.sol\":588:610  newOwner != address(0) */\n      0xffffffffffffffffffffffffffffffffffffffff\n      and\n        /* \"contracts/Ownable.sol\":588:596  newOwner */\n      dup2\n        /* \"contracts/Ownable.sol\":588:610  newOwner != address(0) */\n      0xffffffffffffffffffffffffffffffffffffffff\n      and\n      sub\n        /* \"contracts/Ownable.sol\":580:640  require(newOwner != address(0), \"Address shouldn't be zero\") */\n      tag_48\n      jumpi\n      mload(0x40)\n      0x08c379a000000000000000000000000000000000000000000000000000000000\n      dup2\n      mstore\n      0x04\n      add\n      tag_49\n      swap1\n      tag_50\n      jump\t// in\n    tag_49:\n      mload(0x40)\n      dup1\n      swap2\n      sub\n      swap1\n      revert\n    tag_48:\n        /* \"contracts/Ownable.sol\":684:692  newOwner */\n      dup1\n        /* \"contracts/Ownable.sol\":656:693  OwnershipTransferred(owner, newOwner) */\n      0xffffffffffffffffffffffffffffffffffffffff\n      and\n        /* \"contracts/Ownable.sol\":677:682  owner */\n      0x00\n      dup1\n      sload\n      swap1\n      0x0100\n      exp\n      swap1\n      div\n      0xffffffffffffffffffffffffffffffffffffffff\n      and\n        /* \"contracts/Ownable.sol\":656:693  OwnershipTransferred(owner, newOwner) */\n      0xffffffffffffffffffffffffffffffffffffffff\n      and\n      0x8be0079c531659141344cd1fd0a4f28419497f9722a3daafe3b4186f6b6457e0\n      mload(0x40)\n      mload(0x40)\n      dup1\n      swap2\n      sub\n      swap1\n      log3\n        /* \"contracts/Ownable.sol\":712:720  newOwner */\n      dup1\n        /* \"contracts/Ownable.sol\":704:709  owner */\n      0x00\n      dup1\n        /* \"contracts/Ownable.sol\":704:720  owner = newOwner */\n      0x0100\n      exp\n      dup2\n      sload\n      dup2\n      0xffffffffffffffffffffffffffffffffffffffff\n      mul\n      not\n      and\n      swap1\n      dup4\n      0xffffffffffffffffffffffffffffffffffffffff\n      and\n      mul\n      or\n      swap1\n      sstore\n      pop\n        /* \"contracts/Ownable.sol\":507:728  function transferOwnership(address newOwner) public onlyOwner {... */\n      pop\n      jump\t// out\n        /* \"#utility.yul\":88:205   */\n    tag_52:\n        /* \"#utility.yul\":197:198   */\n      0x00\n        /* \"#utility.yul\":194:195   */\n      dup1\n        /* \"#utility.yul\":187:199   */\n      revert\n        /* \"#utility.yul\":211:328   */\n    tag_53:\n        /* \"#utility.yul\":320:321   */\n      0x00\n        /* \"#utility.yul\":317:318   */\n      dup1\n        /* \"#utility.yul\":310:322   */\n      revert\n        /* \"#utility.yul\":334:451   */\n    tag_54:\n        /* \"#utility.yul\":443:444   */\n      0x00\n        /* \"#utility.yul\":440:441   */\n      dup1\n        /* \"#utility.yul\":433:445   */\n      revert\n        /* \"#utility.yul\":457:574   */\n    tag_55:\n        /* \"#utility.yul\":566:567   */\n      0x00\n        /* \"#utility.yul\":563:564   */\n      dup1\n        /* \"#utility.yul\":556:568   */\n      revert\n        /* \"#utility.yul\":580:697   */\n    tag_56:\n        /* \"#utility.yul\":689:690   */\n      0x00\n        /* \"#utility.yul\":686:687   */\n      dup1\n        /* \"#utility.yul\":679:691   */\n      revert\n        /* \"#utility.yul\":720:1288   */\n    tag_57:\n        /* \"#utility.yul\":793:801   */\n      0x00\n        /* \"#utility.yul\":803:809   */\n      dup1\n        /* \"#utility.yul\":853:856   */\n      dup4\n        /* \"#utility.yul\":846:850   */\n      0x1f\n        /* \"#utility.yul\":838:844   */\n      dup5\n        /* \"#utility.yul\":834:851   */\n      add\n        /* \"#utility.yul\":830:857   */\n      slt\n        /* \"#utility.yul\":820:942   */\n      tag_78\n      jumpi\n        /* \"#utility.yul\":861:940   */\n      tag_79\n      tag_54\n      jump\t// in\n    tag_79:\n        /* \"#utility.yul\":820:942   */\n    tag_78:\n        /* \"#utility.yul\":974:980   */\n      dup3\n        /* \"#utility.yul\":961:981   */\n      calldataload\n        /* \"#utility.yul\":951:981   */\n      swap1\n      pop\n        /* \"#utility.yul\":1004:1022   */\n      0xffffffffffffffff\n        /* \"#utility.yul\":996:1002   */\n      dup2\n        /* \"#utility.yul\":993:1023   */\n      gt\n        /* \"#utility.yul\":990:1107   */\n      iszero\n      tag_80\n      jumpi\n        /* \"#utility.yul\":1026:1105   */\n      tag_81\n      tag_55\n      jump\t// in\n    tag_81:\n        /* \"#utility.yul\":990:1107   */\n    tag_80:\n        /* \"#utility.yul\":1140:1144   */\n      0x20\n        /* \"#utility.yul\":1132:1138   */\n      dup4\n        /* \"#utility.yul\":1128:1145   */\n      add\n        /* \"#utility.yul\":1116:1145   */\n      swap2\n      pop\n        /* \"#utility.yul\":1194:1197   */\n      dup4\n        /* \"#utility.yul\":1186:1190   */\n      0x20\n        /* \"#utility.yul\":1178:1184   */\n      dup3\n        /* \"#utility.yul\":1174:1191   */\n      mul\n        /* \"#utility.yul\":1164:1172   */\n      dup4\n        /* \"#utility.yul\":1160:1192   */\n      add\n        /* \"#utility.yul\":1157:1198   */\n      gt\n        /* \"#utility.yul\":1154:1282   */\n      iszero\n      tag_82\n      jumpi\n        /* \"#utility.yul\":1201:1280   */\n      tag_83\n      tag_56\n      jump\t// in\n    tag_83:\n        /* \"#utility.yul\":1154:1282   */\n    tag_82:\n        /* \"#utility.yul\":720:1288   */\n      swap3\n      pop\n      swap3\n      swap1\n      pop\n      jump\t// out\n        /* \"#utility.yul\":1294:1853   */\n    tag_10:\n        /* \"#utility.yul\":1380:1386   */\n      0x00\n        /* \"#utility.yul\":1388:1394   */\n      dup1\n        /* \"#utility.yul\":1437:1439   */\n      0x20\n        /* \"#utility.yul\":1425:1434   */\n      dup4\n        /* \"#utility.yul\":1416:1423   */\n      dup6\n        /* \"#utility.yul\":1412:1435   */\n      sub\n        /* \"#utility.yul\":1408:1440   */\n      slt\n        /* \"#utility.yul\":1405:1524   */\n      iszero\n      tag_85\n      jumpi\n        /* \"#utility.yul\":1443:1522   */\n      tag_86\n      tag_52\n      jump\t// in\n    tag_86:\n        /* \"#utility.yul\":1405:1524   */\n    tag_85:\n        /* \"#utility.yul\":1591:1592   */\n      0x00\n        /* \"#utility.yul\":1580:1589   */\n      dup4\n        /* \"#utility.yul\":1576:1593   */\n      add\n        /* \"#utility.yul\":1563:1594   */\n      calldataload\n        /* \"#utility.yul\":1621:1639   */\n      0xffffffffffffffff\n        /* \"#utility.yul\":1613:1619   */\n      dup2\n        /* \"#utility.yul\":1610:1640   */\n      gt\n        /* \"#utility.yul\":1607:1724   */\n      iszero\n      tag_87\n      jumpi\n        /* \"#utility.yul\":1643:1722   */\n      tag_88\n      tag_53\n      jump\t// in\n    tag_88:\n        /* \"#utility.yul\":1607:1724   */\n    tag_87:\n        /* \"#utility.yul\":1756:1836   */\n      tag_89\n        /* \"#utility.yul\":1828:1835   */\n      dup6\n        /* \"#utility.yul\":1819:1825   */\n      dup3\n        /* \"#utility.yul\":1808:1817   */\n      dup7\n        /* \"#utility.yul\":1804:1826   */\n      add\n        /* \"#utility.yul\":1756:1836   */\n      tag_57\n      jump\t// in\n    tag_89:\n        /* \"#utility.yul\":1738:1836   */\n      swap3\n      pop\n      swap3\n      pop\n        /* \"#utility.yul\":1534:1846   */\n      pop\n        /* \"#utility.yul\":1294:1853   */\n      swap3\n      pop\n      swap3\n      swap1\n      pop\n      jump\t// out\n        /* \"#utility.yul\":1859:1985   */\n    tag_58:\n        /* \"#utility.yul\":1896:1903   */\n      0x00\n        /* \"#utility.yul\":1936:1978   */\n      0xffffffffffffffffffffffffffffffffffffffff\n        /* \"#utility.yul\":1929:1934   */\n      dup3\n        /* \"#utility.yul\":1925:1979   */\n      and\n        /* \"#utility.yul\":1914:1979   */\n      swap1\n      pop\n        /* \"#utility.yul\":1859:1985   */\n      swap2\n      swap1\n      pop\n      jump\t// out\n        /* \"#utility.yul\":1991:2087   */\n    tag_59:\n        /* \"#utility.yul\":2028:2035   */\n      0x00\n        /* \"#utility.yul\":2057:2081   */\n      tag_92\n        /* \"#utility.yul\":2075:2080   */\n      dup3\n        /* \"#utility.yul\":2057:2081   */\n      tag_58\n      jump\t// in\n    tag_92:\n        /* \"#utility.yul\":2046:2081   */\n      swap1\n      pop\n        /* \"#utility.yul\":1991:2087   */\n      swap2\n      swap1\n      pop\n      jump\t// out\n        /* \"#utility.yul\":2093:2215   */\n    tag_60:\n        /* \"#utility.yul\":2166:2190   */\n      tag_94\n        /* \"#utility.yul\":2184:2189   */\n      dup2\n        /* \"#utility.yul\":2166:2190   */\n      tag_59\n      jump\t// in\n    tag_94:\n        /* \"#utility.yul\":2159:2164   */\n      dup2\n        /* \"#utility.yul\":2156:2191   */\n      eq\n        /* \"#utility.yul\":2146:2209   */\n      tag_95\n      jumpi\n        /* \"#utility.yul\":2205:2206   */\n      0x00\n        /* \"#utility.yul\":2202:2203   */\n      dup1\n        /* \"#utility.yul\":2195:2207   */\n      revert\n        /* \"#utility.yul\":2146:2209   */\n    tag_95:\n        /* \"#utility.yul\":2093:2215   */\n      pop\n      jump\t// out\n        /* \"#utility.yul\":2221:2360   */\n    tag_61:\n        /* \"#utility.yul\":2267:2272   */\n      0x00\n        /* \"#utility.yul\":2305:2311   */\n      dup2\n        /* \"#utility.yul\":2292:2312   */\n      calldataload\n        /* \"#utility.yul\":2283:2312   */\n      swap1\n      pop\n        /* \"#utility.yul\":2321:2354   */\n      tag_97\n        /* \"#utility.yul\":2348:2353   */\n      dup2\n        /* \"#utility.yul\":2321:2354   */\n      tag_60\n      jump\t// in\n    tag_97:\n        /* \"#utility.yul\":2221:2360   */\n      swap3\n      swap2\n      pop\n      pop\n      jump\t// out\n        /* \"#utility.yul\":2366:2695   */\n    tag_14:\n        /* \"#utility.yul\":2425:2431   */\n      0x00\n        /* \"#utility.yul\":2474:2476   */\n      0x20\n        /* \"#utility.yul\":2462:2471   */\n      dup3\n        /* \"#utility.yul\":2453:2460   */\n      dup5\n        /* \"#utility.yul\":2449:2472   */\n      sub\n        /* \"#utility.yul\":2445:2477   */\n      slt\n        /* \"#utility.yul\":2442:2561   */\n      iszero\n      tag_99\n      jumpi\n        /* \"#utility.yul\":2480:2559   */\n      tag_100\n      tag_52\n      jump\t// in\n    tag_100:\n        /* \"#utility.yul\":2442:2561   */\n    tag_99:\n        /* \"#utility.yul\":2600:2601   */\n      0x00\n        /* \"#utility.yul\":2625:2678   */\n      tag_101\n        /* \"#utility.yul\":2670:2677   */\n      dup5\n        /* \"#utility.yul\":2661:2667   */\n      dup3\n        /* \"#utility.yul\":2650:2659   */\n      dup6\n        /* \"#utility.yul\":2646:2668   */\n      add\n        /* \"#utility.yul\":2625:2678   */\n      tag_61\n      jump\t// in\n    tag_101:\n        /* \"#utility.yul\":2615:2678   */\n      swap2\n      pop\n        /* \"#utility.yul\":2571:2688   */\n      pop\n        /* \"#utility.yul\":2366:2695   */\n      swap3\n      swap2\n      pop\n      pop\n      jump\t// out\n        /* \"#utility.yul\":2701:2819   */\n    tag_62:\n        /* \"#utility.yul\":2788:2812   */\n      tag_103\n        /* \"#utility.yul\":2806:2811   */\n      dup2\n        /* \"#utility.yul\":2788:2812   */\n      tag_59\n      jump\t// in\n    tag_103:\n        /* \"#utility.yul\":2783:2786   */\n      dup3\n        /* \"#utility.yul\":2776:2813   */\n      mstore\n        /* \"#utility.yul\":2701:2819   */\n      pop\n      pop\n      jump\t// out\n        /* \"#utility.yul\":2825:3047   */\n    tag_19:\n        /* \"#utility.yul\":2918:2922   */\n      0x00\n        /* \"#utility.yul\":2956:2958   */\n      0x20\n        /* \"#utility.yul\":2945:2954   */\n      dup3\n        /* \"#utility.yul\":2941:2959   */\n      add\n        /* \"#utility.yul\":2933:2959   */\n      swap1\n      pop\n        /* \"#utility.yul\":2969:3040   */\n      tag_105\n        /* \"#utility.yul\":3037:3038   */\n      0x00\n        /* \"#utility.yul\":3026:3035   */\n      dup4\n        /* \"#utility.yul\":3022:3039   */\n      add\n        /* \"#utility.yul\":3013:3019   */\n      dup5\n        /* \"#utility.yul\":2969:3040   */\n      tag_62\n      jump\t// in\n    tag_105:\n        /* \"#utility.yul\":2825:3047   */\n      swap3\n      swap2\n      pop\n      pop\n      jump\t// out\n        /* \"#utility.yul\":3053:3143   */\n    tag_63:\n        /* \"#utility.yul\":3087:3094   */\n      0x00\n        /* \"#utility.yul\":3130:3135   */\n      dup2\n        /* \"#utility.yul\":3123:3136   */\n      iszero\n        /* \"#utility.yul\":3116:3137   */\n      iszero\n        /* \"#utility.yul\":3105:3137   */\n      swap1\n      pop\n        /* \"#utility.yul\":3053:3143   */\n      swap2\n      swap1\n      pop\n      jump\t// out\n        /* \"#utility.yul\":3149:3258   */\n    tag_64:\n        /* \"#utility.yul\":3230:3251   */\n      tag_108\n        /* \"#utility.yul\":3245:3250   */\n      dup2\n        /* \"#utility.yul\":3230:3251   */\n      tag_63\n      jump\t// in\n    tag_108:\n        /* \"#utility.yul\":3225:3228   */\n      dup3\n        /* \"#utility.yul\":3218:3252   */\n      mstore\n        /* \"#utility.yul\":3149:3258   */\n      pop\n      pop\n      jump\t// out\n        /* \"#utility.yul\":3264:3474   */\n    tag_24:\n        /* \"#utility.yul\":3351:3355   */\n      0x00\n        /* \"#utility.yul\":3389:3391   */\n      0x20\n        /* \"#utility.yul\":3378:3387   */\n      dup3\n        /* \"#utility.yul\":3374:3392   */\n      add\n        /* \"#utility.yul\":3366:3392   */\n      swap1\n      pop\n        /* \"#utility.yul\":3402:3467   */\n      tag_110\n        /* \"#utility.yul\":3464:3465   */\n      0x00\n        /* \"#utility.yul\":3453:3462   */\n      dup4\n        /* \"#utility.yul\":3449:3466   */\n      add\n        /* \"#utility.yul\":3440:3446   */\n      dup5\n        /* \"#utility.yul\":3402:3467   */\n      tag_64\n      jump\t// in\n    tag_110:\n        /* \"#utility.yul\":3264:3474   */\n      swap3\n      swap2\n      pop\n      pop\n      jump\t// out\n        /* \"#utility.yul\":3480:3649   */\n    tag_65:\n        /* \"#utility.yul\":3564:3575   */\n      0x00\n        /* \"#utility.yul\":3598:3604   */\n      dup3\n        /* \"#utility.yul\":3593:3596   */\n      dup3\n        /* \"#utility.yul\":3586:3605   */\n      mstore\n        /* \"#utility.yul\":3638:3642   */\n      0x20\n        /* \"#utility.yul\":3633:3636   */\n      dup3\n        /* \"#utility.yul\":3629:3643   */\n      add\n        /* \"#utility.yul\":3614:3643   */\n      swap1\n      pop\n        /* \"#utility.yul\":3480:3649   */\n      swap3\n      swap2\n      pop\n      pop\n      jump\t// out\n        /* \"#utility.yul\":3655:3829   */\n    tag_66:\n        /* \"#utility.yul\":3795:3821   */\n      0x4e6f7420617574686f72697a6564206f7065726174696f6e0000000000000000\n        /* \"#utility.yul\":3791:3792   */\n      0x00\n        /* \"#utility.yul\":3783:3789   */\n      dup3\n        /* \"#utility.yul\":3779:3793   */\n      add\n        /* \"#utility.yul\":3772:3822   */\n      mstore\n        /* \"#utility.yul\":3655:3829   */\n      pop\n      jump\t// out\n        /* \"#utility.yul\":3835:4201   */\n    tag_67:\n        /* \"#utility.yul\":3977:3980   */\n      0x00\n        /* \"#utility.yul\":3998:4065   */\n      tag_114\n        /* \"#utility.yul\":4062:4064   */\n      0x18\n        /* \"#utility.yul\":4057:4060   */\n      dup4\n        /* \"#utility.yul\":3998:4065   */\n      tag_65\n      jump\t// in\n    tag_114:\n        /* \"#utility.yul\":3991:4065   */\n      swap2\n      pop\n        /* \"#utility.yul\":4074:4167   */\n      tag_115\n        /* \"#utility.yul\":4163:4166   */\n      dup3\n        /* \"#utility.yul\":4074:4167   */\n      tag_66\n      jump\t// in\n    tag_115:\n        /* \"#utility.yul\":4192:4194   */\n      0x20\n        /* \"#utility.yul\":4187:4190   */\n      dup3\n        /* \"#utility.yul\":4183:4195   */\n      add\n        /* \"#utility.yul\":4176:4195   */\n      swap1\n      pop\n        /* \"#utility.yul\":3835:4201   */\n      swap2\n      swap1\n      pop\n      jump\t// out\n        /* \"#utility.yul\":4207:4626   */\n    tag_31:\n        /* \"#utility.yul\":4373:4377   */\n      0x00\n        /* \"#utility.yul\":4411:4413   */\n      0x20\n        /* \"#utility.yul\":4400:4409   */\n      dup3\n        /* \"#utility.yul\":4396:4414   */\n      add\n        /* \"#utility.yul\":4388:4414   */\n      swap1\n      pop\n        /* \"#utility.yul\":4460:4469   */\n      dup2\n        /* \"#utility.yul\":4454:4458   */\n      dup2\n        /* \"#utility.yul\":4450:4470   */\n      sub\n        /* \"#utility.yul\":4446:4447   */\n      0x00\n        /* \"#utility.yul\":4435:4444   */\n      dup4\n        /* \"#utility.yul\":4431:4448   */\n      add\n        /* \"#utility.yul\":4424:4471   */\n      mstore\n        /* \"#utility.yul\":4488:4619   */\n      tag_117\n        /* \"#utility.yul\":4614:4618   */\n      dup2\n        /* \"#utility.yul\":4488:4619   */\n      tag_67\n      jump\t// in\n    tag_117:\n        /* \"#utility.yul\":4480:4619   */\n      swap1\n      pop\n        /* \"#utility.yul\":4207:4626   */\n      swap2\n      swap1\n      pop\n      jump\t// out\n        /* \"#utility.yul\":4632:4812   */\n    tag_38:\n        /* \"#utility.yul\":4680:4757   */\n      0x4e487b7100000000000000000000000000000000000000000000000000000000\n        /* \"#utility.yul\":4677:4678   */\n      0x00\n        /* \"#utility.yul\":4670:4758   */\n      mstore\n        /* \"#utility.yul\":4777:4781   */\n      0x32\n        /* \"#utility.yul\":4774:4775   */\n      0x04\n        /* \"#utility.yul\":4767:4782   */\n      mstore\n        /* \"#utility.yul\":4801:4805   */\n      0x24\n        /* \"#utility.yul\":4798:4799   */\n      0x00\n        /* \"#utility.yul\":4791:4806   */\n      revert\n        /* \"#utility.yul\":4818:4993   */\n    tag_68:\n        /* \"#utility.yul\":4958:4985   */\n      0x416464726573732073686f756c646e2774206265207a65726f00000000000000\n        /* \"#utility.yul\":4954:4955   */\n      0x00\n        /* \"#utility.yul\":4946:4952   */\n      dup3\n        /* \"#utility.yul\":4942:4956   */\n      add\n        /* \"#utility.yul\":4935:4986   */\n      mstore\n        /* \"#utility.yul\":4818:4993   */\n      pop\n      jump\t// out\n        /* \"#utility.yul\":4999:5365   */\n    tag_69:\n        /* \"#utility.yul\":5141:5144   */\n      0x00\n        /* \"#utility.yul\":5162:5229   */\n      tag_121\n        /* \"#utility.yul\":5226:5228   */\n      0x19\n        /* \"#utility.yul\":5221:5224   */\n      dup4\n        /* \"#utility.yul\":5162:5229   */\n      tag_65\n      jump\t// in\n    tag_121:\n        /* \"#utility.yul\":5155:5229   */\n      swap2\n      pop\n        /* \"#utility.yul\":5238:5331   */\n      tag_122\n        /* \"#utility.yul\":5327:5330   */\n      dup3\n        /* \"#utility.yul\":5238:5331   */\n      tag_68\n      jump\t// in\n    tag_122:\n        /* \"#utility.yul\":5356:5358   */\n      0x20\n        /* \"#utility.yul\":5351:5354   */\n      dup3\n        /* \"#utility.yul\":5347:5359   */\n      add\n        /* \"#utility.yul\":5340:5359   */\n      swap1\n      pop\n        /* \"#utility.yul\":4999:5365   */\n      swap2\n      swap1\n      pop\n      jump\t// out\n        /* \"#utility.yul\":5371:5790   */\n    tag_50:\n        /* \"#utility.yul\":5537:5541   */\n      0x00\n        /* \"#utility.yul\":5575:5577   */\n      0x20\n        /* \"#utility.yul\":5564:5573   */\n      dup3\n        /* \"#utility.yul\":5560:5578   */\n      add\n        /* \"#utility.yul\":5552:5578   */\n      swap1\n      pop\n        /* \"#utility.yul\":5624:5633   */\n      dup2\n        /* \"#utility.yul\":5618:5622   */\n      dup2\n        /* \"#utility.yul\":5614:5634   */\n      sub\n        /* \"#utility.yul\":5610:5611   */\n      0x00\n        /* \"#utility.yul\":5599:5608   */\n      dup4\n        /* \"#utility.yul\":5595:5612   */\n      add\n        /* \"#utility.yul\":5588:5635   */\n      mstore\n        /* \"#utility.yul\":5652:5783   */\n      tag_124\n        /* \"#utility.yul\":5778:5782   */\n      dup2\n        /* \"#utility.yul\":5652:5783   */\n      tag_69\n      jump\t// in\n    tag_124:\n        /* \"#utility.yul\":5644:5783   */\n      swap1\n      pop\n        /* \"#utility.yul\":5371:5790   */\n      swap2\n      swap1\n      pop\n      jump\t// out\n\n    auxdata: 0xa2646970667358221220e2875988976b06db7331e079d26583d0f2b923d57895750bdb74e237bd8ff65664736f6c634300081a0033\n}\n",
				"bytecode": {
					"linkReferences": {},
					"object": "6080604052348015600e575f80fd5b50335f806101000a81548173ffffffffffffffffffffffffffffffffffffffff021916908373ffffffffffffffffffffffffffffffffffffffff1602179055506107d38061005b5f395ff3fe608060405234801561000f575f80fd5b5060043610610055575f3560e01c80637f649783146100595780638ab1d681146100755780638da5cb5b146100915780639b19251a146100af578063f2fde38b146100df575b5f80fd5b610073600480360381019061006e9190610565565b6100fb565b005b61008f600480360381019061008a919061060a565b610222565b005b610099610306565b6040516100a69190610644565b60405180910390f35b6100c960048036038101906100c4919061060a565b610329565b6040516100d69190610677565b60405180910390f35b6100f960048036038101906100f4919061060a565b610346565b005b5f8054906101000a900473ffffffffffffffffffffffffffffffffffffffff1673ffffffffffffffffffffffffffffffffffffffff163373ffffffffffffffffffffffffffffffffffffffff1614610188576040517f08c379a000000000000000000000000000000000000000000000000000000000815260040161017f906106ea565b60405180910390fd5b5f5b8282905081101561021d576001805f8585858181106101ac576101ab610708565b5b90506020020160208101906101c1919061060a565b73ffffffffffffffffffffffffffffffffffffffff1673ffffffffffffffffffffffffffffffffffffffff1681526020019081526020015f205f6101000a81548160ff021916908315150217905550808060010191505061018a565b505050565b5f8054906101000a900473ffffffffffffffffffffffffffffffffffffffff1673ffffffffffffffffffffffffffffffffffffffff163373ffffffffffffffffffffffffffffffffffffffff16146102af576040517f08c379a00000000000000000000000000000000000000000000000000000000081526004016102a6906106ea565b60405180910390fd5b5f60015f8373ffffffffffffffffffffffffffffffffffffffff1673ffffffffffffffffffffffffffffffffffffffff1681526020019081526020015f205f6101000a81548160ff02191690831515021790555050565b5f8054906101000a900473ffffffffffffffffffffffffffffffffffffffff1681565b6001602052805f5260405f205f915054906101000a900460ff1681565b5f8054906101000a900473ffffffffffffffffffffffffffffffffffffffff1673ffffffffffffffffffffffffffffffffffffffff163373ffffffffffffffffffffffffffffffffffffffff16146103d3576040517f08c379a00000000000000000000000000000000000000000000000000000000081526004016103ca906106ea565b60405180910390fd5b5f73ffffffffffffffffffffffffffffffffffffffff168173ffffffffffffffffffffffffffffffffffffffff1603610441576040517f08c379a00000000000000000000000000000000000000000000000000000000081526004016104389061077f565b60405180910390fd5b8073ffffffffffffffffffffffffffffffffffffffff165f8054906101000a900473ffffffffffffffffffffffffffffffffffffffff1673ffffffffffffffffffffffffffffffffffffffff167f8be0079c531659141344cd1fd0a4f28419497f9722a3daafe3b4186f6b6457e060405160405180910390a3805f806101000a81548173ffffffffffffffffffffffffffffffffffffffff021916908373ffffffffffffffffffffffffffffffffffffffff16021790555050565b5f80fd5b5f80fd5b5f80fd5b5f80fd5b5f80fd5b5f8083601f84011261052557610524610504565b5b8235905067ffffffffffffffff81111561054257610541610508565b5b60208301915083602082028301111561055e5761055d61050c565b5b9250929050565b5f806020838503121561057b5761057a6104fc565b5b5f83013567ffffffffffffffff81111561059857610597610500565b5b6105a485828601610510565b92509250509250929050565b5f73ffffffffffffffffffffffffffffffffffffffff82169050919050565b5f6105d9826105b0565b9050919050565b6105e9816105cf565b81146105f3575f80fd5b50565b5f81359050610604816105e0565b92915050565b5f6020828403121561061f5761061e6104fc565b5b5f61062c848285016105f6565b91505092915050565b61063e816105cf565b82525050565b5f6020820190506106575f830184610635565b92915050565b5f8115159050919050565b6106718161065d565b82525050565b5f60208201905061068a5f830184610668565b92915050565b5f82825260208201905092915050565b7f4e6f7420617574686f72697a6564206f7065726174696f6e00000000000000005f82015250565b5f6106d4601883610690565b91506106df826106a0565b602082019050919050565b5f6020820190508181035f830152610701816106c8565b9050919050565b7f4e487b71000000000000000000000000000000000000000000000000000000005f52603260045260245ffd5b7f416464726573732073686f756c646e2774206265207a65726f000000000000005f82015250565b5f610769601983610690565b915061077482610735565b602082019050919050565b5f6020820190508181035f8301526107968161075d565b905091905056fea2646970667358221220e2875988976b06db7331e079d26583d0f2b923d57895750bdb74e237bd8ff65664736f6c634300081a0033",
					"opcodes": "PUSH1 0x80 PUSH1 0x40 MSTORE CALLVALUE DUP1 ISZERO PUSH1 0xE JUMPI PUSH0 DUP1 REVERT JUMPDEST POP CALLER PUSH0 DUP1 PUSH2 0x100 EXP DUP2 SLOAD DUP2 PUSH20 0xFFFFFFFFFFFFFFFFFFFFFFFFFFFFFFFFFFFFFFFF MUL NOT AND SWAP1 DUP4 PUSH20 0xFFFFFFFFFFFFFFFFFFFFFFFFFFFFFFFFFFFFFFFF AND MUL OR SWAP1 SSTORE POP PUSH2 0x7D3 DUP1 PUSH2 0x5B PUSH0 CODECOPY PUSH0 RETURN INVALID PUSH1 0x80 PUSH1 0x40 MSTORE CALLVALUE DUP1 ISZERO PUSH2 0xF JUMPI PUSH0 DUP1 REVERT JUMPDEST POP PUSH1 0x4 CALLDATASIZE LT PUSH2 0x55 JUMPI PUSH0 CALLDATALOAD PUSH1 0xE0 SHR DUP1 PUSH4 0x7F649783 EQ PUSH2 0x59 JUMPI DUP1 PUSH4 0x8AB1D681 EQ PUSH2 0x75 JUMPI DUP1 PUSH4 0x8DA5CB5B EQ PUSH2 0x91 JUMPI DUP1 PUSH4 0x9B19251A EQ PUSH2 0xAF JUMPI DUP1 PUSH4 0xF2FDE38B EQ PUSH2 0xDF JUMPI JUMPDEST PUSH0 DUP1 REVERT JUMPDEST PUSH2 0x73 PUSH1 0x4 DUP1 CALLDATASIZE SUB DUP2 ADD SWAP1 PUSH2 0x6E SWAP2 SWAP1 PUSH2 0x565 JUMP JUMPDEST PUSH2 0xFB JUMP JUMPDEST STOP JUMPDEST PUSH2 0x8F PUSH1 0x4 DUP1 CALLDATASIZE SUB DUP2 ADD SWAP1 PUSH2 0x8A SWAP2 SWAP1 PUSH2 0x60A JUMP JUMPDEST PUSH2 0x222 JUMP JUMPDEST STOP JUMPDEST PUSH2 0x99 PUSH2 0x306 JUMP JUMPDEST PUSH1 0x40 MLOAD PUSH2 0xA6 SWAP2 SWAP1 PUSH2 0x644 JUMP JUMPDEST PUSH1 0x40 MLOAD DUP1 SWAP2 SUB SWAP1 RETURN JUMPDEST PUSH2 0xC9 PUSH1 0x4 DUP1 CALLDATASIZE SUB DUP2 ADD SWAP1 PUSH2 0xC4 SWAP2 SWAP1 PUSH2 0x60A JUMP JUMPDEST PUSH2 0x329 JUMP JUMPDEST PUSH1 0x40 MLOAD PUSH2 0xD6 SWAP2 SWAP1 PUSH2 0x677 JUMP JUMPDEST PUSH1 0x40 MLOAD DUP1 SWAP2 SUB SWAP1 RETURN JUMPDEST PUSH2 0xF9 PUSH1 0x4 DUP1 CALLDATASIZE SUB DUP2 ADD SWAP1 PUSH2 0xF4 SWAP2 SWAP1 PUSH2 0x60A JUMP JUMPDEST PUSH2 0x346 JUMP JUMPDEST STOP JUMPDEST PUSH0 DUP1 SLOAD SWAP1 PUSH2 0x100 EXP SWAP1 DIV PUSH20 0xFFFFFFFFFFFFFFFFFFFFFFFFFFFFFFFFFFFFFFFF AND PUSH20 0xFFFFFFFFFFFFFFFFFFFFFFFFFFFFFFFFFFFFFFFF AND CALLER PUSH20 0xFFFFFFFFFFFFFFFFFFFFFFFFFFFFFFFFFFFFFFFF AND EQ PUSH2 0x188 JUMPI PUSH1 0x40 MLOAD PUSH32 0x8C379A000000000000000000000000000000000000000000000000000000000 DUP2 MSTORE PUSH1 0x4 ADD PUSH2 0x17F SWAP1 PUSH2 0x6EA JUMP JUMPDEST PUSH1 0x40 MLOAD DUP1 SWAP2 SUB SWAP1 REVERT JUMPDEST PUSH0 JUMPDEST DUP3 DUP3 SWAP1 POP DUP2 LT ISZERO PUSH2 0x21D JUMPI PUSH1 0x1 DUP1 PUSH0 DUP6 DUP6 DUP6 DUP2 DUP2 LT PUSH2 0x1AC JUMPI PUSH2 0x1AB PUSH2 0x708 JUMP JUMPDEST JUMPDEST SWAP1 POP PUSH1 0x20 MUL ADD PUSH1 0x20 DUP2 ADD SWAP1 PUSH2 0x1C1 SWAP2 SWAP1 PUSH2 0x60A JUMP JUMPDEST PUSH20 0xFFFFFFFFFFFFFFFFFFFFFFFFFFFFFFFFFFFFFFFF AND PUSH20 0xFFFFFFFFFFFFFFFFFFFFFFFFFFFFFFFFFFFFFFFF AND DUP2 MSTORE PUSH1 0x20 ADD SWAP1 DUP2 MSTORE PUSH1 0x20 ADD PUSH0 KECCAK256 PUSH0 PUSH2 0x100 EXP DUP2 SLOAD DUP2 PUSH1 0xFF MUL NOT AND SWAP1 DUP4 ISZERO ISZERO MUL OR SWAP1 SSTORE POP DUP1 DUP1 PUSH1 0x1 ADD SWAP2 POP POP PUSH2 0x18A JUMP JUMPDEST POP POP POP JUMP JUMPDEST PUSH0 DUP1 SLOAD SWAP1 PUSH2 0x100 EXP SWAP1 DIV PUSH20 0xFFFFFFFFFFFFFFFFFFFFFFFFFFFFFFFFFFFFFFFF AND PUSH20 0xFFFFFFFFFFFFFFFFFFFFFFFFFFFFFFFFFFFFFFFF AND CALLER PUSH20 0xFFFFFFFFFFFFFFFFFFFFFFFFFFFFFFFFFFFFFFFF AND EQ PUSH2 0x2AF JUMPI PUSH1 0x40 MLOAD PUSH32 0x8C379A000000000000000000000000000000000000000000000000000000000 DUP2 MSTORE PUSH1 0x4 ADD PUSH2 0x2A6 SWAP1 PUSH2 0x6EA JUMP JUMPDEST PUSH1 0x40 MLOAD DUP1 SWAP2 SUB SWAP1 REVERT JUMPDEST PUSH0 PUSH1 0x1 PUSH0 DUP4 PUSH20 0xFFFFFFFFFFFFFFFFFFFFFFFFFFFFFFFFFFFFFFFF AND PUSH20 0xFFFFFFFFFFFFFFFFFFFFFFFFFFFFFFFFFFFFFFFF AND DUP2 MSTORE PUSH1 0x20 ADD SWAP1 DUP2 MSTORE PUSH1 0x20 ADD PUSH0 KECCAK256 PUSH0 PUSH2 0x100 EXP DUP2 SLOAD DUP2 PUSH1 0xFF MUL NOT AND SWAP1 DUP4 ISZERO ISZERO MUL OR SWAP1 SSTORE POP POP JUMP JUMPDEST PUSH0 DUP1 SLOAD SWAP1 PUSH2 0x100 EXP SWAP1 DIV PUSH20 0xFFFFFFFFFFFFFFFFFFFFFFFFFFFFFFFFFFFFFFFF AND DUP2 JUMP JUMPDEST PUSH1 0x1 PUSH1 0x20 MSTORE DUP1 PUSH0 MSTORE PUSH1 0x40 PUSH0 KECCAK256 PUSH0 SWAP2 POP SLOAD SWAP1 PUSH2 0x100 EXP SWAP1 DIV PUSH1 0xFF AND DUP2 JUMP JUMPDEST PUSH0 DUP1 SLOAD SWAP1 PUSH2 0x100 EXP SWAP1 DIV PUSH20 0xFFFFFFFFFFFFFFFFFFFFFFFFFFFFFFFFFFFFFFFF AND PUSH20 0xFFFFFFFFFFFFFFFFFFFFFFFFFFFFFFFFFFFFFFFF AND CALLER PUSH20 0xFFFFFFFFFFFFFFFFFFFFFFFFFFFFFFFFFFFFFFFF AND EQ PUSH2 0x3D3 JUMPI PUSH1 0x40 MLOAD PUSH32 0x8C379A000000000000000000000000000000000000000000000000000000000 DUP2 MSTORE PUSH1 0x4 ADD PUSH2 0x3CA SWAP1 PUSH2 0x6EA JUMP JUMPDEST PUSH1 0x40 MLOAD DUP1 SWAP2 SUB SWAP1 REVERT JUMPDEST PUSH0 PUSH20 0xFFFFFFFFFFFFFFFFFFFFFFFFFFFFFFFFFFFFFFFF AND DUP2 PUSH20 0xFFFFFFFFFFFFFFFFFFFFFFFFFFFFFFFFFFFFFFFF AND SUB PUSH2 0x441 JUMPI PUSH1 0x40 MLOAD PUSH32 0x8C379A000000000000000000000000000000000000000000000000000000000 DUP2 MSTORE PUSH1 0x4 ADD PUSH2 0x438 SWAP1 PUSH2 0x77F JUMP JUMPDEST PUSH1 0x40 MLOAD DUP1 SWAP2 SUB SWAP1 REVERT JUMPDEST DUP1 PUSH20 0xFFFFFFFFFFFFFFFFFFFFFFFFFFFFFFFFFFFFFFFF AND PUSH0 DUP1 SLOAD SWAP1 PUSH2 0x100 EXP SWAP1 DIV PUSH20 0xFFFFFFFFFFFFFFFFFFFFFFFFFFFFFFFFFFFFFFFF AND PUSH20 0xFFFFFFFFFFFFFFFFFFFFFFFFFFFFFFFFFFFFFFFF AND PUSH32 0x8BE0079C531659141344CD1FD0A4F28419497F9722A3DAAFE3B4186F6B6457E0 PUSH1 0x40 MLOAD PUSH1 0x40 MLOAD DUP1 SWAP2 SUB SWAP1 LOG3 DUP1 PUSH0 DUP1 PUSH2 0x100 EXP DUP2 SLOAD DUP2 PUSH20 0xFFFFFFFFFFFFFFFFFFFFFFFFFFFFFFFFFFFFFFFF MUL NOT AND SWAP1 DUP4 PUSH20 0xFFFFFFFFFFFFFFFFFFFFFFFFFFFFFFFFFFFFFFFF AND MUL OR SWAP1 SSTORE POP POP JUMP JUMPDEST PUSH0 DUP1 REVERT JUMPDEST PUSH0 DUP1 REVERT JUMPDEST PUSH0 DUP1 REVERT JUMPDEST PUSH0 DUP1 REVERT JUMPDEST PUSH0 DUP1 REVERT JUMPDEST PUSH0 DUP1 DUP4 PUSH1 0x1F DUP5 ADD SLT PUSH2 0x525 JUMPI PUSH2 0x524 PUSH2 0x504 JUMP JUMPDEST JUMPDEST DUP3 CALLDATALOAD SWAP1 POP PUSH8 0xFFFFFFFFFFFFFFFF DUP2 GT ISZERO PUSH2 0x542 JUMPI PUSH2 0x541 PUSH2 0x508 JUMP JUMPDEST JUMPDEST PUSH1 0x20 DUP4 ADD SWAP2 POP DUP4 PUSH1 0x20 DUP3 MUL DUP4 ADD GT ISZERO PUSH2 0x55E JUMPI PUSH2 0x55D PUSH2 0x50C JUMP JUMPDEST JUMPDEST SWAP3 POP SWAP3 SWAP1 POP JUMP JUMPDEST PUSH0 DUP1 PUSH1 0x20 DUP4 DUP6 SUB SLT ISZERO PUSH2 0x57B JUMPI PUSH2 0x57A PUSH2 0x4FC JUMP JUMPDEST JUMPDEST PUSH0 DUP4 ADD CALLDATALOAD PUSH8 0xFFFFFFFFFFFFFFFF DUP2 GT ISZERO PUSH2 0x598 JUMPI PUSH2 0x597 PUSH2 0x500 JUMP JUMPDEST JUMPDEST PUSH2 0x5A4 DUP6 DUP3 DUP7 ADD PUSH2 0x510 JUMP JUMPDEST SWAP3 POP SWAP3 POP POP SWAP3 POP SWAP3 SWAP1 POP JUMP JUMPDEST PUSH0 PUSH20 0xFFFFFFFFFFFFFFFFFFFFFFFFFFFFFFFFFFFFFFFF DUP3 AND SWAP1 POP SWAP2 SWAP1 POP JUMP JUMPDEST PUSH0 PUSH2 0x5D9 DUP3 PUSH2 0x5B0 JUMP JUMPDEST SWAP1 POP SWAP2 SWAP1 POP JUMP JUMPDEST PUSH2 0x5E9 DUP2 PUSH2 0x5CF JUMP JUMPDEST DUP2 EQ PUSH2 0x5F3 JUMPI PUSH0 DUP1 REVERT JUMPDEST POP JUMP JUMPDEST PUSH0 DUP2 CALLDATALOAD SWAP1 POP PUSH2 0x604 DUP2 PUSH2 0x5E0 JUMP JUMPDEST SWAP3 SWAP2 POP POP JUMP JUMPDEST PUSH0 PUSH1 0x20 DUP3 DUP5 SUB SLT ISZERO PUSH2 0x61F JUMPI PUSH2 0x61E PUSH2 0x4FC JUMP JUMPDEST JUMPDEST PUSH0 PUSH2 0x62C DUP5 DUP3 DUP6 ADD PUSH2 0x5F6 JUMP JUMPDEST SWAP2 POP POP SWAP3 SWAP2 POP POP JUMP JUMPDEST PUSH2 0x63E DUP2 PUSH2 0x5CF JUMP JUMPDEST DUP3 MSTORE POP POP JUMP JUMPDEST PUSH0 PUSH1 0x20 DUP3 ADD SWAP1 POP PUSH2 0x657 PUSH0 DUP4 ADD DUP5 PUSH2 0x635 JUMP JUMPDEST SWAP3 SWAP2 POP POP JUMP JUMPDEST PUSH0 DUP2 ISZERO ISZERO SWAP1 POP SWAP2 SWAP1 POP JUMP JUMPDEST PUSH2 0x671 DUP2 PUSH2 0x65D JUMP JUMPDEST DUP3 MSTORE POP POP JUMP JUMPDEST PUSH0 PUSH1 0x20 DUP3 ADD SWAP1 POP PUSH2 0x68A PUSH0 DUP4 ADD DUP5 PUSH2 0x668 JUMP JUMPDEST SWAP3 SWAP2 POP POP JUMP JUMPDEST PUSH0 DUP3 DUP3 MSTORE PUSH1 0x20 DUP3 ADD SWAP1 POP SWAP3 SWAP2 POP POP JUMP JUMPDEST PUSH32 0x4E6F7420617574686F72697A6564206F7065726174696F6E0000000000000000 PUSH0 DUP3 ADD MSTORE POP JUMP JUMPDEST PUSH0 PUSH2 0x6D4 PUSH1 0x18 DUP4 PUSH2 0x690 JUMP JUMPDEST SWAP2 POP PUSH2 0x6DF DUP3 PUSH2 0x6A0 JUMP JUMPDEST PUSH1 0x20 DUP3 ADD SWAP1 POP SWAP2 SWAP1 POP JUMP JUMPDEST PUSH0 PUSH1 0x20 DUP3 ADD SWAP1 POP DUP2 DUP2 SUB PUSH0 DUP4 ADD MSTORE PUSH2 0x701 DUP2 PUSH2 0x6C8 JUMP JUMPDEST SWAP1 POP SWAP2 SWAP1 POP JUMP JUMPDEST PUSH32 0x4E487B7100000000000000000000000000000000000000000000000000000000 PUSH0 MSTORE PUSH1 0x32 PUSH1 0x4 MSTORE PUSH1 0x24 PUSH0 REVERT JUMPDEST PUSH32 0x416464726573732073686F756C646E2774206265207A65726F00000000000000 PUSH0 DUP3 ADD MSTORE POP JUMP JUMPDEST PUSH0 PUSH2 0x769 PUSH1 0x19 DUP4 PUSH2 0x690 JUMP JUMPDEST SWAP2 POP PUSH2 0x774 DUP3 PUSH2 0x735 JUMP JUMPDEST PUSH1 0x20 DUP3 ADD SWAP1 POP SWAP2 SWAP1 POP JUMP JUMPDEST PUSH0 PUSH1 0x20 DUP3 ADD SWAP1 POP DUP2 DUP2 SUB PUSH0 DUP4 ADD MSTORE PUSH2 0x796 DUP2 PUSH2 0x75D JUMP JUMPDEST SWAP1 POP SWAP2 SWAP1 POP JUMP INVALID LOG2 PUSH5 0x6970667358 0x22 SLT KECCAK256 0xE2 DUP8 MSIZE DUP9 SWAP8 PUSH12 0x6DB7331E079D26583D0F2B9 0x23 0xD5 PUSH25 0x95750BDB74E237BD8FF65664736F6C634300081A0033000000 "
				},
				"gasEstimates": {
					"creation": {
						"codeDepositCost": "400600",
						"executionCost": "24699",
						"totalCost": "425299"
					},
					"external": {
						"addToWhitelist(address[])": "infinite",
						"owner()": "2527",
						"removeFromWhitelist(address)": "26968",
						"transferOwnership(address)": "30658",
						"whitelist(address)": "2877"
					},
					"internal": {
						"isWhitelisted(address)": "infinite"
					}
				},
				"methodIdentifiers": {
					"addToWhitelist(address[])": "7f649783",
					"owner()": "8da5cb5b",
					"removeFromWhitelist(address)": "8ab1d681",
					"transferOwnership(address)": "f2fde38b",
					"whitelist(address)": "9b19251a"
				}
			},
			"storageLayout": {
				"storage": [
					{
						"astId": 111,
						"contract": "contracts/Whitelist.sol:Whitelist",
						"label": "owner",
						"offset": 0,
						"slot": "0",
						"type": "t_address"
					},
					{
						"astId": 263,
						"contract": "contracts/Whitelist.sol:Whitelist",
						"label": "whitelist",
						"offset": 0,
						"slot": "1",
						"type": "t_mapping(t_address,t_bool)"
					}
				],
				"types": {
					"t_address": {
						"encoding": "inplace",
						"label": "address",
						"numberOfBytes": "20"
					},
					"t_bool": {
						"encoding": "inplace",
						"label": "bool",
						"numberOfBytes": "1"
					},
					"t_mapping(t_address,t_bool)": {
						"encoding": "mapping",
						"key": "t_address",
						"label": "mapping(address => bool)",
						"numberOfBytes": "32",
						"value": "t_bool"
					}
				}
			},
			"userdoc": {
				"kind": "user",
				"methods": {},
				"version": 1
			}
		}
	}
}